{
  "_format": "hh-sol-artifact-1",
  "contractName": "Faucet",
  "sourceName": "contracts/Faucet.sol",
  "abi": [
    {
      "inputs": [
        {
          "internalType": "address",
          "name": "_tokenContractAddress",
          "type": "address"
        },
        {
          "internalType": "uint256",
          "name": "_amountEachTime",
          "type": "uint256"
        }
      ],
      "stateMutability": "nonpayable",
      "type": "constructor"
    },
    {
      "inputs": [],
      "name": "amountEachTime",
      "outputs": [
        {
          "internalType": "uint256",
          "name": "",
          "type": "uint256"
        }
      ],
      "stateMutability": "view",
      "type": "function"
    },
    {
      "inputs": [],
      "name": "owner",
      "outputs": [
        {
          "internalType": "address",
          "name": "",
          "type": "address"
        }
      ],
      "stateMutability": "view",
      "type": "function"
    },
    {
      "inputs": [
        {
          "internalType": "address",
          "name": "",
          "type": "address"
        }
      ],
      "name": "receiveRecord",
      "outputs": [
        {
          "internalType": "uint256",
          "name": "",
          "type": "uint256"
        }
      ],
      "stateMutability": "view",
      "type": "function"
    },
    {
      "inputs": [
        {
          "internalType": "uint256",
          "name": "_amountEachTime",
          "type": "uint256"
        }
      ],
      "name": "setAmountEachTime",
      "outputs": [],
      "stateMutability": "nonpayable",
      "type": "function"
    },
    {
      "inputs": [],
      "name": "tokenContract",
      "outputs": [
        {
          "internalType": "contract IERC20",
          "name": "",
          "type": "address"
        }
      ],
      "stateMutability": "view",
      "type": "function"
    },
    {
      "inputs": [],
      "name": "withdraw",
      "outputs": [],
      "stateMutability": "nonpayable",
      "type": "function"
    }
  ],
  "bytecode": "0x608060405234801561001057600080fd5b50604051610b2a380380610b2a8339818101604052810190610032919061015a565b816000806101000a81548173ffffffffffffffffffffffffffffffffffffffff021916908373ffffffffffffffffffffffffffffffffffffffff1602179055508060028190555033600360006101000a81548173ffffffffffffffffffffffffffffffffffffffff021916908373ffffffffffffffffffffffffffffffffffffffff160217905550505061019a565b600080fd5b600073ffffffffffffffffffffffffffffffffffffffff82169050919050565b60006100f1826100c6565b9050919050565b610101816100e6565b811461010c57600080fd5b50565b60008151905061011e816100f8565b92915050565b6000819050919050565b61013781610124565b811461014257600080fd5b50565b6000815190506101548161012e565b92915050565b60008060408385031215610171576101706100c1565b5b600061017f8582860161010f565b925050602061019085828601610145565b9150509250929050565b610981806101a96000396000f3fe608060405234801561001057600080fd5b50600436106100625760003560e01c80633ccfd60b1461006757806355a373d6146100715780635e9e23b41461008f5780638da5cb5b146100ab578063d56272bd146100c9578063e9aabeb8146100e7575b600080fd5b61006f610117565b005b6100796103b4565b6040516100869190610535565b60405180910390f35b6100a960048036038101906100a4919061058b565b6103d8565b005b6100b3610472565b6040516100c091906105d9565b60405180910390f35b6100d1610498565b6040516100de9190610603565b60405180910390f35b61010160048036038101906100fc919061064a565b61049e565b60405161010e9190610603565b60405180910390f35b6000600160003373ffffffffffffffffffffffffffffffffffffffff1673ffffffffffffffffffffffffffffffffffffffff1681526020019081526020016000205411156101ef5762015180600160003373ffffffffffffffffffffffffffffffffffffffff1673ffffffffffffffffffffffffffffffffffffffff16815260200190815260200160002054426101ae91906106a6565b116101ee576040517f08c379a00000000000000000000000000000000000000000000000000000000081526004016101e590610737565b60405180910390fd5b5b60025460008054906101000a900473ffffffffffffffffffffffffffffffffffffffff1673ffffffffffffffffffffffffffffffffffffffff166370a08231306040518263ffffffff1660e01b815260040161024b91906105d9565b602060405180830381865afa158015610268573d6000803e3d6000fd5b505050506040513d601f19601f8201168201806040525081019061028c919061076c565b10156102cd576040517f08c379a00000000000000000000000000000000000000000000000000000000081526004016102c49061080b565b60405180910390fd5b42600160003373ffffffffffffffffffffffffffffffffffffffff1673ffffffffffffffffffffffffffffffffffffffff1681526020019081526020016000208190555060008054906101000a900473ffffffffffffffffffffffffffffffffffffffff1673ffffffffffffffffffffffffffffffffffffffff1663a9059cbb336002546040518363ffffffff1660e01b815260040161036e92919061082b565b6020604051808303816000875af115801561038d573d6000803e3d6000fd5b505050506040513d601f19601f820116820180604052508101906103b1919061088c565b50565b60008054906101000a900473ffffffffffffffffffffffffffffffffffffffff1681565b600360009054906101000a900473ffffffffffffffffffffffffffffffffffffffff1673ffffffffffffffffffffffffffffffffffffffff163373ffffffffffffffffffffffffffffffffffffffff1614610468576040517f08c379a000000000000000000000000000000000000000000000000000000000815260040161045f9061092b565b60405180910390fd5b8060028190555050565b600360009054906101000a900473ffffffffffffffffffffffffffffffffffffffff1681565b60025481565b60016020528060005260406000206000915090505481565b600073ffffffffffffffffffffffffffffffffffffffff82169050919050565b6000819050919050565b60006104fb6104f66104f1846104b6565b6104d6565b6104b6565b9050919050565b600061050d826104e0565b9050919050565b600061051f82610502565b9050919050565b61052f81610514565b82525050565b600060208201905061054a6000830184610526565b92915050565b600080fd5b6000819050919050565b61056881610555565b811461057357600080fd5b50565b6000813590506105858161055f565b92915050565b6000602082840312156105a1576105a0610550565b5b60006105af84828501610576565b91505092915050565b60006105c3826104b6565b9050919050565b6105d3816105b8565b82525050565b60006020820190506105ee60008301846105ca565b92915050565b6105fd81610555565b82525050565b600060208201905061061860008301846105f4565b92915050565b610627816105b8565b811461063257600080fd5b50565b6000813590506106448161061e565b92915050565b6000602082840312156106605761065f610550565b5b600061066e84828501610635565b91505092915050565b7f4e487b7100000000000000000000000000000000000000000000000000000000600052601160045260246000fd5b60006106b182610555565b91506106bc83610555565b92508282039050818111156106d4576106d3610677565b5b92915050565b600082825260208201905092915050565b7f596f752063616e206f6e6c79207769746864726177206f6e6365206120646179600082015250565b60006107216020836106da565b915061072c826106eb565b602082019050919050565b6000602082019050818103600083015261075081610714565b9050919050565b6000815190506107668161055f565b92915050565b60006020828403121561078257610781610550565b5b600061079084828501610757565b91505092915050565b7f4e6f7420656e6f75676820746f6b656e7320696e2074686520636f6e7472616360008201527f7400000000000000000000000000000000000000000000000000000000000000602082015250565b60006107f56021836106da565b915061080082610799565b604082019050919050565b60006020820190508181036000830152610824816107e8565b9050919050565b600060408201905061084060008301856105ca565b61084d60208301846105f4565b9392505050565b60008115159050919050565b61086981610854565b811461087457600080fd5b50565b60008151905061088681610860565b92915050565b6000602082840312156108a2576108a1610550565b5b60006108b084828501610877565b91505092915050565b7f4f6e6c7920746865206f776e65722063616e207365742074686520616d6f756e60008201527f7400000000000000000000000000000000000000000000000000000000000000602082015250565b60006109156021836106da565b9150610920826108b9565b604082019050919050565b6000602082019050818103600083015261094481610908565b905091905056fea2646970667358221220690e1fcfc2a4059958b6068f2a27f0a233a44140b4b3bf02f51a4e3706ab36d264736f6c63430008180033",
  "linkReferences": {},
  "deployedLinkReferences": {}
}