{
  "_format": "hh-sol-artifact-1",
  "contractName": "Airdrop",
  "sourceName": "contracts/Airdrop.sol",
  "abi": [
    {
      "inputs": [
        {
          "internalType": "address",
          "name": "_tokenContractAddress",
          "type": "address"
        }
      ],
      "stateMutability": "nonpayable",
      "type": "constructor"
    },
    {
      "inputs": [
        {
          "internalType": "address[]",
          "name": "_to",
          "type": "address[]"
        },
        {
          "internalType": "uint256",
          "name": "_value",
          "type": "uint256"
        }
      ],
      "name": "drop",
      "outputs": [],
      "stateMutability": "nonpayable",
      "type": "function"
    },
    {
      "inputs": [],
      "name": "owner",
      "outputs": [
        {
          "internalType": "address",
          "name": "",
          "type": "address"
        }
      ],
      "stateMutability": "view",
      "type": "function"
    },
    {
      "inputs": [],
      "name": "tokenContract",
      "outputs": [
        {
          "internalType": "contract IERC20",
          "name": "",
          "type": "address"
        }
      ],
      "stateMutability": "view",
      "type": "function"
    }
  ],
  "bytecode": "0x608060405234801561001057600080fd5b50604051610a7a380380610a7a8339818101604052810190610032919061011c565b806000806101000a81548173ffffffffffffffffffffffffffffffffffffffff021916908373ffffffffffffffffffffffffffffffffffffffff16021790555033600160006101000a81548173ffffffffffffffffffffffffffffffffffffffff021916908373ffffffffffffffffffffffffffffffffffffffff16021790555050610149565b600080fd5b600073ffffffffffffffffffffffffffffffffffffffff82169050919050565b60006100e9826100be565b9050919050565b6100f9816100de565b811461010457600080fd5b50565b600081519050610116816100f0565b92915050565b600060208284031215610132576101316100b9565b5b600061014084828501610107565b91505092915050565b610922806101586000396000f3fe608060405234801561001057600080fd5b50600436106100415760003560e01c80633974874b1461004657806355a373d6146100625780638da5cb5b14610080575b600080fd5b610060600480360381019061005b9190610538565b61009e565b005b61006a6102ed565b60405161007791906105f3565b60405180910390f35b610088610311565b604051610095919061061d565b60405180910390f35b600160009054906101000a900473ffffffffffffffffffffffffffffffffffffffff1673ffffffffffffffffffffffffffffffffffffffff163373ffffffffffffffffffffffffffffffffffffffff161461012e576040517f08c379a0000000000000000000000000000000000000000000000000000000008152600401610125906106bb565b60405180910390fd5b81518161013b919061070a565b60008054906101000a900473ffffffffffffffffffffffffffffffffffffffff1673ffffffffffffffffffffffffffffffffffffffff166370a08231306040518263ffffffff1660e01b8152600401610194919061061d565b602060405180830381865afa1580156101b1573d6000803e3d6000fd5b505050506040513d601f19601f820116820180604052508101906101d59190610761565b1015610216576040517f08c379a000000000000000000000000000000000000000000000000000000000815260040161020d90610800565b60405180910390fd5b60005b82518110156102e85760008054906101000a900473ffffffffffffffffffffffffffffffffffffffff1673ffffffffffffffffffffffffffffffffffffffff1663a9059cbb84838151811061027157610270610820565b5b6020026020010151846040518363ffffffff1660e01b815260040161029792919061085e565b6020604051808303816000875af11580156102b6573d6000803e3d6000fd5b505050506040513d601f19601f820116820180604052508101906102da91906108bf565b508080600101915050610219565b505050565b60008054906101000a900473ffffffffffffffffffffffffffffffffffffffff1681565b600160009054906101000a900473ffffffffffffffffffffffffffffffffffffffff1681565b6000604051905090565b600080fd5b600080fd5b600080fd5b6000601f19601f8301169050919050565b7f4e487b7100000000000000000000000000000000000000000000000000000000600052604160045260246000fd5b61039982610350565b810181811067ffffffffffffffff821117156103b8576103b7610361565b5b80604052505050565b60006103cb610337565b90506103d78282610390565b919050565b600067ffffffffffffffff8211156103f7576103f6610361565b5b602082029050602081019050919050565b600080fd5b600073ffffffffffffffffffffffffffffffffffffffff82169050919050565b60006104388261040d565b9050919050565b6104488161042d565b811461045357600080fd5b50565b6000813590506104658161043f565b92915050565b600061047e610479846103dc565b6103c1565b905080838252602082019050602084028301858111156104a1576104a0610408565b5b835b818110156104ca57806104b68882610456565b8452602084019350506020810190506104a3565b5050509392505050565b600082601f8301126104e9576104e861034b565b5b81356104f984826020860161046b565b91505092915050565b6000819050919050565b61051581610502565b811461052057600080fd5b50565b6000813590506105328161050c565b92915050565b6000806040838503121561054f5761054e610341565b5b600083013567ffffffffffffffff81111561056d5761056c610346565b5b610579858286016104d4565b925050602061058a85828601610523565b9150509250929050565b6000819050919050565b60006105b96105b46105af8461040d565b610594565b61040d565b9050919050565b60006105cb8261059e565b9050919050565b60006105dd826105c0565b9050919050565b6105ed816105d2565b82525050565b600060208201905061060860008301846105e4565b92915050565b6106178161042d565b82525050565b6000602082019050610632600083018461060e565b92915050565b600082825260208201905092915050565b7f4f6e6c7920746865206f776e65722063616e2061697244726f7020746f6b656e60008201527f7300000000000000000000000000000000000000000000000000000000000000602082015250565b60006106a5602183610638565b91506106b082610649565b604082019050919050565b600060208201905081810360008301526106d481610698565b9050919050565b7f4e487b7100000000000000000000000000000000000000000000000000000000600052601160045260246000fd5b600061071582610502565b915061072083610502565b925082820261072e81610502565b91508282048414831517610745576107446106db565b5b5092915050565b60008151905061075b8161050c565b92915050565b60006020828403121561077757610776610341565b5b60006107858482850161074c565b91505092915050565b7f4e6f7420656e6f75676820746f6b656e7320696e2074686520636f6e7472616360008201527f7400000000000000000000000000000000000000000000000000000000000000602082015250565b60006107ea602183610638565b91506107f58261078e565b604082019050919050565b60006020820190508181036000830152610819816107dd565b9050919050565b7f4e487b7100000000000000000000000000000000000000000000000000000000600052603260045260246000fd5b61085881610502565b82525050565b6000604082019050610873600083018561060e565b610880602083018461084f565b9392505050565b60008115159050919050565b61089c81610887565b81146108a757600080fd5b50565b6000815190506108b981610893565b92915050565b6000602082840312156108d5576108d4610341565b5b60006108e3848285016108aa565b9150509291505056fea26469706673582212200864ea319da928f72364cd388322446826776154fbae01dfa3a6e0d0b26fc80d64736f6c63430008180033",
  "linkReferences": {},
  "deployedLinkReferences": {}
}